{
  "contractName": "Token",
  "abi": [
    {
      "inputs": [
        {
          "internalType": "uint256",
          "name": "initialSupply",
          "type": "uint256"
        },
        {
          "internalType": "string",
          "name": "tokenName",
          "type": "string"
        },
        {
          "internalType": "string",
          "name": "tokenSymbol",
          "type": "string"
        },
        {
          "internalType": "uint8",
          "name": "decimalUnits",
          "type": "uint8"
        }
      ],
      "stateMutability": "nonpayable",
      "type": "constructor"
    },
    {
      "anonymous": false,
      "inputs": [
        {
          "indexed": true,
          "internalType": "address",
          "name": "from",
          "type": "address"
        },
        {
          "indexed": true,
          "internalType": "address",
          "name": "to",
          "type": "address"
        },
        {
          "indexed": false,
          "internalType": "uint256",
          "name": "value",
          "type": "uint256"
        }
      ],
      "name": "Transfer",
      "type": "event"
    },
    {
      "inputs": [
        {
          "internalType": "address",
          "name": "",
          "type": "address"
        }
      ],
      "name": "balanceOf",
      "outputs": [
        {
          "internalType": "uint256",
          "name": "",
          "type": "uint256"
        }
      ],
      "stateMutability": "view",
      "type": "function",
      "constant": true
    },
    {
      "inputs": [],
      "name": "decimals",
      "outputs": [
        {
          "internalType": "uint8",
          "name": "",
          "type": "uint8"
        }
      ],
      "stateMutability": "view",
      "type": "function",
      "constant": true
    },
    {
      "inputs": [],
      "name": "name",
      "outputs": [
        {
          "internalType": "string",
          "name": "",
          "type": "string"
        }
      ],
      "stateMutability": "view",
      "type": "function",
      "constant": true
    },
    {
      "inputs": [],
      "name": "symbol",
      "outputs": [
        {
          "internalType": "string",
          "name": "",
          "type": "string"
        }
      ],
      "stateMutability": "view",
      "type": "function",
      "constant": true
    },
    {
      "inputs": [],
      "name": "totalSupply",
      "outputs": [
        {
          "internalType": "uint256",
          "name": "",
          "type": "uint256"
        }
      ],
      "stateMutability": "view",
      "type": "function",
      "constant": true
    },
    {
      "inputs": [
        {
          "internalType": "address",
          "name": "_to",
          "type": "address"
        },
        {
          "internalType": "uint256",
          "name": "_value",
          "type": "uint256"
        }
      ],
      "name": "transfer",
      "outputs": [
        {
          "internalType": "bool",
          "name": "success",
          "type": "bool"
        }
      ],
      "stateMutability": "nonpayable",
      "type": "function"
    }
  ],
  "bytecode": "0x608060405234801562000010575f80fd5b5060405162000e6238038062000e628339818101604052810190620000369190620002be565b8360045f3373ffffffffffffffffffffffffffffffffffffffff1673ffffffffffffffffffffffffffffffffffffffff1681526020019081526020015f208190555083600381905550825f90816200008f919062000599565b508160019081620000a1919062000599565b508060025f6101000a81548160ff021916908360ff160217905550505050506200067d565b5f604051905090565b5f80fd5b5f80fd5b5f819050919050565b620000eb81620000d7565b8114620000f6575f80fd5b50565b5f815190506200010981620000e0565b92915050565b5f80fd5b5f80fd5b5f601f19601f8301169050919050565b7f4e487b71000000000000000000000000000000000000000000000000000000005f52604160045260245ffd5b6200015f8262000117565b810181811067ffffffffffffffff8211171562000181576200018062000127565b5b80604052505050565b5f62000195620000c6565b9050620001a3828262000154565b919050565b5f67ffffffffffffffff821115620001c557620001c462000127565b5b620001d08262000117565b9050602081019050919050565b5f5b83811015620001fc578082015181840152602081019050620001df565b5f8484015250505050565b5f6200021d6200021784620001a8565b6200018a565b9050828152602081018484840111156200023c576200023b62000113565b5b62000249848285620001dd565b509392505050565b5f82601f8301126200026857620002676200010f565b5b81516200027a84826020860162000207565b91505092915050565b5f60ff82169050919050565b6200029a8162000283565b8114620002a5575f80fd5b50565b5f81519050620002b8816200028f565b92915050565b5f805f8060808587031215620002d957620002d8620000cf565b5b5f620002e887828801620000f9565b945050602085015167ffffffffffffffff8111156200030c576200030b620000d3565b5b6200031a8782880162000251565b935050604085015167ffffffffffffffff8111156200033e576200033d620000d3565b5b6200034c8782880162000251565b92505060606200035f87828801620002a8565b91505092959194509250565b5f81519050919050565b7f4e487b71000000000000000000000000000000000000000000000000000000005f52602260045260245ffd5b5f6002820490506001821680620003ba57607f821691505b602082108103620003d057620003cf62000375565b5b50919050565b5f819050815f5260205f209050919050565b5f6020601f8301049050919050565b5f82821b905092915050565b5f60088302620004347fffffffffffffffffffffffffffffffffffffffffffffffffffffffffffffffff82620003f7565b620004408683620003f7565b95508019841693508086168417925050509392505050565b5f819050919050565b5f620004816200047b6200047584620000d7565b62000458565b620000d7565b9050919050565b5f819050919050565b6200049c8362000461565b620004b4620004ab8262000488565b84845462000403565b825550505050565b5f90565b620004ca620004bc565b620004d781848462000491565b505050565b5b81811015620004fe57620004f25f82620004c0565b600181019050620004dd565b5050565b601f8211156200054d576200051781620003d6565b6200052284620003e8565b8101602085101562000532578190505b6200054a6200054185620003e8565b830182620004dc565b50505b505050565b5f82821c905092915050565b5f6200056f5f198460080262000552565b1980831691505092915050565b5f6200058983836200055e565b9150826002028217905092915050565b620005a4826200036b565b67ffffffffffffffff811115620005c057620005bf62000127565b5b620005cc8254620003a2565b620005d982828562000502565b5f60209050601f8311600181146200060f575f8415620005fa578287015190505b6200060685826200057c565b86555062000675565b601f1984166200061f86620003d6565b5f5b82811015620006485784890151825560018201915060208501945060208101905062000621565b8683101562000668578489015162000664601f8916826200055e565b8355505b6001600288020188555050505b505050505050565b6107d7806200068b5f395ff3fe608060405234801561000f575f80fd5b5060043610610060575f3560e01c806306fdde031461006457806318160ddd14610082578063313ce567146100a057806370a08231146100be57806395d89b41146100ee578063a9059cbb1461010c575b5f80fd5b61006c61013c565b60405161007991906104a0565b60405180910390f35b61008a6101c7565b60405161009791906104d8565b60405180910390f35b6100a86101cd565b6040516100b5919061050c565b60405180910390f35b6100d860048036038101906100d39190610583565b6101df565b6040516100e591906104d8565b60405180910390f35b6100f66101f4565b60405161010391906104a0565b60405180910390f35b610126600480360381019061012191906105d8565b610280565b6040516101339190610630565b60405180910390f35b5f805461014890610676565b80601f016020809104026020016040519081016040528092919081815260200182805461017490610676565b80156101bf5780601f10610196576101008083540402835291602001916101bf565b820191905f5260205f20905b8154815290600101906020018083116101a257829003601f168201915b505050505081565b60035481565b60025f9054906101000a900460ff1681565b6004602052805f5260405f205f915090505481565b6001805461020190610676565b80601f016020809104026020016040519081016040528092919081815260200182805461022d90610676565b80156102785780601f1061024f57610100808354040283529160200191610278565b820191905f5260205f20905b81548152906001019060200180831161025b57829003601f168201915b505050505081565b5f8160045f3373ffffffffffffffffffffffffffffffffffffffff1673ffffffffffffffffffffffffffffffffffffffff1681526020019081526020015f20541015610301576040517f08c379a00000000000000000000000000000000000000000000000000000000081526004016102f8906106f0565b60405180910390fd5b8160045f3373ffffffffffffffffffffffffffffffffffffffff1673ffffffffffffffffffffffffffffffffffffffff1681526020019081526020015f205f82825461034d919061073b565b925050819055508160045f8573ffffffffffffffffffffffffffffffffffffffff1673ffffffffffffffffffffffffffffffffffffffff1681526020019081526020015f205f8282546103a0919061076e565b925050819055508273ffffffffffffffffffffffffffffffffffffffff163373ffffffffffffffffffffffffffffffffffffffff167fddf252ad1be2c89b69c2b068fc378daa952ba7f163c4a11628f55a4df523b3ef8460405161040491906104d8565b60405180910390a36001905092915050565b5f81519050919050565b5f82825260208201905092915050565b5f5b8381101561044d578082015181840152602081019050610432565b5f8484015250505050565b5f601f19601f8301169050919050565b5f61047282610416565b61047c8185610420565b935061048c818560208601610430565b61049581610458565b840191505092915050565b5f6020820190508181035f8301526104b88184610468565b905092915050565b5f819050919050565b6104d2816104c0565b82525050565b5f6020820190506104eb5f8301846104c9565b92915050565b5f60ff82169050919050565b610506816104f1565b82525050565b5f60208201905061051f5f8301846104fd565b92915050565b5f80fd5b5f73ffffffffffffffffffffffffffffffffffffffff82169050919050565b5f61055282610529565b9050919050565b61056281610548565b811461056c575f80fd5b50565b5f8135905061057d81610559565b92915050565b5f6020828403121561059857610597610525565b5b5f6105a58482850161056f565b91505092915050565b6105b7816104c0565b81146105c1575f80fd5b50565b5f813590506105d2816105ae565b92915050565b5f80604083850312156105ee576105ed610525565b5b5f6105fb8582860161056f565b925050602061060c858286016105c4565b9150509250929050565b5f8115159050919050565b61062a81610616565b82525050565b5f6020820190506106435f830184610621565b92915050565b7f4e487b71000000000000000000000000000000000000000000000000000000005f52602260045260245ffd5b5f600282049050600182168061068d57607f821691505b6020821081036106a05761069f610649565b5b50919050565b7f496e73756666696369656e742062616c616e63650000000000000000000000005f82015250565b5f6106da601483610420565b91506106e5826106a6565b602082019050919050565b5f6020820190508181035f830152610707816106ce565b9050919050565b7f4e487b71000000000000000000000000000000000000000000000000000000005f52601160045260245ffd5b5f610745826104c0565b9150610750836104c0565b92508282039050818111156107685761076761070e565b5b92915050565b5f610778826104c0565b9150610783836104c0565b925082820190508082111561079b5761079a61070e565b5b9291505056fea2646970667358221220a0c094d01f0a28191df293a3b1bbc04147dfbeb4a46c46c456b5a9c640a5b87e64736f6c63430008150033",
  "immutableReferences": {},
  "source": "// SPDX-License-Identifier: MIT\npragma solidity ^0.8.0;\n\ncontract Token {\n    string public name;\n    string public symbol;\n    uint8 public decimals;\n    uint256 public totalSupply;\n\n    mapping(address => uint256) public balanceOf;\n\n    event Transfer(address indexed from, address indexed to, uint256 value);\n\n    constructor(\n        uint256 initialSupply,\n        string memory tokenName,\n        string memory tokenSymbol,\n        uint8 decimalUnits\n    ) {\n        balanceOf[msg.sender] = initialSupply;\n        totalSupply = initialSupply;\n        name = tokenName;\n        symbol = tokenSymbol;\n        decimals = decimalUnits;\n    }\n\n    function transfer(address _to, uint256 _value) public returns (bool success) {\n        require(balanceOf[msg.sender] >= _value, \"Insufficient balance\");\n        balanceOf[msg.sender] -= _value;\n        balanceOf[_to] += _value;\n        emit Transfer(msg.sender, _to, _value);\n        return true;\n    }\n}\n\n",
  "sourcePath": "C:\\Users\\Dean\\Desktop\\coin\\contracts\\Token.sol",
  "compiler": {
    "name": "solc",
    "version": "0.8.21+commit.d9974bed.Emscripten.clang"
  },
  "schemaVersion": "3.4.16",
  "updatedAt": "2024-02-11T02:24:52.739Z",
  "networkType": "ethereum",
  "devdoc": {
    "kind": "dev",
    "methods": {},
    "version": 1
  },
  "userdoc": {
    "kind": "user",
    "methods": {},
    "version": 1
  }
}